{
  "contractName": "ArrayMapping",
  "abi": [
    {
      "inputs": [],
      "stateMutability": "nonpayable",
      "type": "constructor"
    },
    {
      "inputs": [],
      "name": "owner",
      "outputs": [
        {
          "internalType": "address",
          "name": "",
          "type": "address"
        }
      ],
      "stateMutability": "view",
      "type": "function",
      "constant": true
    },
    {
      "inputs": [
        {
          "internalType": "uint256",
          "name": "",
          "type": "uint256"
        }
      ],
      "name": "whiteListArray",
      "outputs": [
        {
          "internalType": "address",
          "name": "",
          "type": "address"
        }
      ],
      "stateMutability": "view",
      "type": "function",
      "constant": true
    },
    {
      "inputs": [
        {
          "internalType": "address",
          "name": "",
          "type": "address"
        }
      ],
      "name": "whiteListMapping",
      "outputs": [
        {
          "internalType": "bool",
          "name": "",
          "type": "bool"
        }
      ],
      "stateMutability": "view",
      "type": "function",
      "constant": true
    },
    {
      "inputs": [
        {
          "internalType": "address",
          "name": "_user",
          "type": "address"
        }
      ],
      "name": "addUserIntoWhiteListArray",
      "outputs": [],
      "stateMutability": "nonpayable",
      "type": "function"
    },
    {
      "inputs": [
        {
          "internalType": "address",
          "name": "_user",
          "type": "address"
        }
      ],
      "name": "removeUserFromWhiteListArray",
      "outputs": [],
      "stateMutability": "nonpayable",
      "type": "function"
    },
    {
      "inputs": [
        {
          "internalType": "address",
          "name": "_user",
          "type": "address"
        }
      ],
      "name": "addUserIntoWhiteListMapping",
      "outputs": [],
      "stateMutability": "nonpayable",
      "type": "function"
    },
    {
      "inputs": [
        {
          "internalType": "address",
          "name": "_user",
          "type": "address"
        }
      ],
      "name": "removeUserFromWhiteListMapping",
      "outputs": [],
      "stateMutability": "nonpayable",
      "type": "function"
    }
  ],
  "bytecode": "0x608060405234801561001057600080fd5b50336000806101000a81548173ffffffffffffffffffffffffffffffffffffffff021916908373ffffffffffffffffffffffffffffffffffffffff1602179055506108ab806100606000396000f3fe608060405234801561001057600080fd5b506004361061007d5760003560e01c80637887603a1161005b5780637887603a146100fe5780638da5cb5b1461011a578063d622abca14610138578063e727340e146101545761007d565b8063250d21ee146100825780633a7f4e63146100b25780635f048f47146100e2575b600080fd5b61009c600480360381019061009791906105fe565b610170565b6040516100a9919061066c565b60405180910390f35b6100cc60048036038101906100c791906106b3565b6101af565b6040516100d991906106fb565b60405180910390f35b6100fc60048036038101906100f791906106b3565b6101cf565b005b610118600480360381019061011391906106b3565b6103df565b005b6101226104e9565b60405161012f919061066c565b60405180910390f35b610152600480360381019061014d91906106b3565b61050d565b005b61016e600480360381019061016991906106b3565b610568565b005b6001818154811061018057600080fd5b906000526020600020016000915054906101000a900473ffffffffffffffffffffffffffffffffffffffff1681565b60026020528060005260406000206000915054906101000a900460ff1681565b6000600180549050905060005b81811015610269578273ffffffffffffffffffffffffffffffffffffffff166001828154811061020f5761020e610716565b5b9060005260206000200160009054906101000a900473ffffffffffffffffffffffffffffffffffffffff1673ffffffffffffffffffffffffffffffffffffffff16031561026957808061026190610774565b9150506101dc565b81811061027557600080fd5b5b60018261028391906107bc565b811015610343576001808261029891906107f0565b815481106102a9576102a8610716565b5b9060005260206000200160009054906101000a900473ffffffffffffffffffffffffffffffffffffffff16600182815481106102e8576102e7610716565b5b9060005260206000200160006101000a81548173ffffffffffffffffffffffffffffffffffffffff021916908373ffffffffffffffffffffffffffffffffffffffff160217905550808061033b90610774565b915050610276565b600180808054905061035591906107bc565b8154811061036657610365610716565b5b9060005260206000200160006101000a81549073ffffffffffffffffffffffffffffffffffffffff021916905560018054806103a5576103a4610846565b5b6001900381819060005260206000200160006101000a81549073ffffffffffffffffffffffffffffffffffffffff02191690559055505050565b6000600180549050905060005b81811015610479578273ffffffffffffffffffffffffffffffffffffffff166001828154811061041f5761041e610716565b5b9060005260206000200160009054906101000a900473ffffffffffffffffffffffffffffffffffffffff1673ffffffffffffffffffffffffffffffffffffffff16031561047957808061047190610774565b9150506103ec565b8181036104e4576001839080600181540180825580915050600190039060005260206000200160009091909190916101000a81548173ffffffffffffffffffffffffffffffffffffffff021916908373ffffffffffffffffffffffffffffffffffffffff1602179055505b505050565b60008054906101000a900473ffffffffffffffffffffffffffffffffffffffff1681565b6000600260008373ffffffffffffffffffffffffffffffffffffffff1673ffffffffffffffffffffffffffffffffffffffff16815260200190815260200160002060006101000a81548160ff02191690831515021790555050565b6001600260008373ffffffffffffffffffffffffffffffffffffffff1673ffffffffffffffffffffffffffffffffffffffff16815260200190815260200160002060006101000a81548160ff02191690831515021790555050565b600080fd5b6000819050919050565b6105db816105c8565b81146105e657600080fd5b50565b6000813590506105f8816105d2565b92915050565b600060208284031215610614576106136105c3565b5b6000610622848285016105e9565b91505092915050565b600073ffffffffffffffffffffffffffffffffffffffff82169050919050565b60006106568261062b565b9050919050565b6106668161064b565b82525050565b6000602082019050610681600083018461065d565b92915050565b6106908161064b565b811461069b57600080fd5b50565b6000813590506106ad81610687565b92915050565b6000602082840312156106c9576106c86105c3565b5b60006106d78482850161069e565b91505092915050565b60008115159050919050565b6106f5816106e0565b82525050565b600060208201905061071060008301846106ec565b92915050565b7f4e487b7100000000000000000000000000000000000000000000000000000000600052603260045260246000fd5b7f4e487b7100000000000000000000000000000000000000000000000000000000600052601160045260246000fd5b600061077f826105c8565b91507fffffffffffffffffffffffffffffffffffffffffffffffffffffffffffffffff82036107b1576107b0610745565b5b600182019050919050565b60006107c7826105c8565b91506107d2836105c8565b9250828210156107e5576107e4610745565b5b828203905092915050565b60006107fb826105c8565b9150610806836105c8565b9250827fffffffffffffffffffffffffffffffffffffffffffffffffffffffffffffffff0382111561083b5761083a610745565b5b828201905092915050565b7f4e487b7100000000000000000000000000000000000000000000000000000000600052603160045260246000fdfea2646970667358221220de7375ef1a86dde2506dfebf4adfbdd517e45d9a9c732d8fcf37750e6ef8525764736f6c634300080d0033",
  "immutableReferences": {},
  "source": "// SPDX-License-Identifier: MIT\npragma solidity ^0.8.13;\n\ncontract ArrayMapping {\n    address public owner;\n    address[] public whiteListArray;\n    mapping(address => bool) public whiteListMapping;\n\n    constructor() {\n        owner = msg.sender;\n    }\n\n    function addUserIntoWhiteListArray(address _user) public {\n        uint256 length = whiteListArray.length;\n        uint256 index = 0;\n        for (; index < length; index++) {\n            if (whiteListArray[index] == _user) {\n                break;\n            }\n        }\n\n        if (index == length) {\n            whiteListArray.push(_user);\n        }\n    }\n\n    function removeUserFromWhiteListArray(address _user) public {\n        uint256 length = whiteListArray.length;\n        uint256 index = 0;\n\n        for (; index < length; index++) {\n            if (whiteListArray[index] == _user) {\n                break;\n            }\n        }\n\n        require(index < length);\n\n        for (; index < length - 1; index++) {\n            whiteListArray[index] = whiteListArray[index + 1];\n        }\n\n        delete whiteListArray[whiteListArray.length - 1];\n        whiteListArray.pop();\n    }\n\n    function addUserIntoWhiteListMapping(address _user) public {\n        whiteListMapping[_user] = true;\n    }\n\n    function removeUserFromWhiteListMapping(address _user) public {\n        whiteListMapping[_user] = false;\n    }\n}\n",
  "sourcePath": "/Users/tsengmj/Documents/MJTseng/solidity_example/contracts/ArrayMapping.sol",
  "compiler": {
    "name": "solc",
    "version": "0.8.13+commit.abaa5c0e.Emscripten.clang"
  },
  "schemaVersion": "3.4.6",
  "updatedAt": "2022-05-12T12:52:09.909Z",
  "networkType": "ethereum",
  "devdoc": {
    "kind": "dev",
    "methods": {},
    "version": 1
  },
  "userdoc": {
    "kind": "user",
    "methods": {},
    "version": 1
  }
}