{
  "contractName": "CommonType",
  "abi": [
    {
      "inputs": [],
      "stateMutability": "nonpayable",
      "type": "constructor"
    },
    {
      "inputs": [],
      "name": "deployedTime",
      "outputs": [
        {
          "internalType": "uint256",
          "name": "",
          "type": "uint256"
        }
      ],
      "stateMutability": "view",
      "type": "function",
      "constant": true
    },
    {
      "inputs": [],
      "name": "desc",
      "outputs": [
        {
          "internalType": "string",
          "name": "",
          "type": "string"
        }
      ],
      "stateMutability": "view",
      "type": "function",
      "constant": true
    },
    {
      "inputs": [],
      "name": "owner",
      "outputs": [
        {
          "internalType": "address",
          "name": "",
          "type": "address"
        }
      ],
      "stateMutability": "view",
      "type": "function",
      "constant": true
    },
    {
      "inputs": [],
      "name": "getDesc",
      "outputs": [
        {
          "internalType": "string",
          "name": "",
          "type": "string"
        }
      ],
      "stateMutability": "view",
      "type": "function",
      "constant": true
    },
    {
      "inputs": [
        {
          "internalType": "string",
          "name": "_desc",
          "type": "string"
        }
      ],
      "name": "updateDesc",
      "outputs": [],
      "stateMutability": "nonpayable",
      "type": "function"
    }
  ],
  "bytecode": "0x60806040526040518060400160405280601481526020017f4f72696769616e6c204465736372697074696f6e0000000000000000000000008152506002908051906020019061004f9291906100a9565b5034801561005c57600080fd5b50336000806101000a81548173ffffffffffffffffffffffffffffffffffffffff021916908373ffffffffffffffffffffffffffffffffffffffff160217905550426001819055506101ac565b8280546100b59061017b565b90600052602060002090601f0160209004810192826100d7576000855561011e565b82601f106100f057805160ff191683800117855561011e565b8280016001018555821561011e579182015b8281111561011d578251825591602001919060010190610102565b5b50905061012b919061012f565b5090565b5b80821115610148576000816000905550600101610130565b5090565b7f4e487b7100000000000000000000000000000000000000000000000000000000600052602260045260246000fd5b6000600282049050600182168061019357607f821691505b6020821081036101a6576101a561014c565b5b50919050565b61066a806101bb6000396000f3fe608060405234801561001057600080fd5b50600436106100575760003560e01c8063461ac0191461005c5780634fbf35ad1461007a57806355f150f114610096578063644d8164146100b45780638da5cb5b146100d2575b600080fd5b6100646100f0565b6040516100719190610310565b60405180910390f35b610094600480360381019061008f9190610485565b6100f6565b005b61009e610110565b6040516100ab9190610556565b60405180910390f35b6100bc61019e565b6040516100c99190610556565b60405180910390f35b6100da610230565b6040516100e791906105b9565b60405180910390f35b60015481565b806002908051906020019061010c929190610254565b5050565b6002805461011d90610603565b80601f016020809104026020016040519081016040528092919081815260200182805461014990610603565b80156101965780601f1061016b57610100808354040283529160200191610196565b820191906000526020600020905b81548152906001019060200180831161017957829003601f168201915b505050505081565b6060600280546101ad90610603565b80601f01602080910402602001604051908101604052809291908181526020018280546101d990610603565b80156102265780601f106101fb57610100808354040283529160200191610226565b820191906000526020600020905b81548152906001019060200180831161020957829003601f168201915b5050505050905090565b60008054906101000a900473ffffffffffffffffffffffffffffffffffffffff1681565b82805461026090610603565b90600052602060002090601f01602090048101928261028257600085556102c9565b82601f1061029b57805160ff19168380011785556102c9565b828001600101855582156102c9579182015b828111156102c85782518255916020019190600101906102ad565b5b5090506102d691906102da565b5090565b5b808211156102f35760008160009055506001016102db565b5090565b6000819050919050565b61030a816102f7565b82525050565b60006020820190506103256000830184610301565b92915050565b6000604051905090565b600080fd5b600080fd5b600080fd5b600080fd5b6000601f19601f8301169050919050565b7f4e487b7100000000000000000000000000000000000000000000000000000000600052604160045260246000fd5b61039282610349565b810181811067ffffffffffffffff821117156103b1576103b061035a565b5b80604052505050565b60006103c461032b565b90506103d08282610389565b919050565b600067ffffffffffffffff8211156103f0576103ef61035a565b5b6103f982610349565b9050602081019050919050565b82818337600083830152505050565b6000610428610423846103d5565b6103ba565b90508281526020810184848401111561044457610443610344565b5b61044f848285610406565b509392505050565b600082601f83011261046c5761046b61033f565b5b813561047c848260208601610415565b91505092915050565b60006020828403121561049b5761049a610335565b5b600082013567ffffffffffffffff8111156104b9576104b861033a565b5b6104c584828501610457565b91505092915050565b600081519050919050565b600082825260208201905092915050565b60005b838110156105085780820151818401526020810190506104ed565b83811115610517576000848401525b50505050565b6000610528826104ce565b61053281856104d9565b93506105428185602086016104ea565b61054b81610349565b840191505092915050565b60006020820190508181036000830152610570818461051d565b905092915050565b600073ffffffffffffffffffffffffffffffffffffffff82169050919050565b60006105a382610578565b9050919050565b6105b381610598565b82525050565b60006020820190506105ce60008301846105aa565b92915050565b7f4e487b7100000000000000000000000000000000000000000000000000000000600052602260045260246000fd5b6000600282049050600182168061061b57607f821691505b60208210810361062e5761062d6105d4565b5b5091905056fea26469706673582212201eecc7e97b88f47e4c482dadb1837d99b0822e0ae89c3a50a4157ec620f5151d64736f6c634300080d0033",
  "immutableReferences": {},
  "source": "// SPDX-License-Identifier: MIT\npragma solidity ^0.8.13;\n\ncontract CommonType {\n    address public owner;\n    uint256 public deployedTime; // uint => uint 256\n    string public desc = \"Origianl Description\";\n\n    constructor() {\n        owner = msg.sender;\n        deployedTime = block.timestamp;\n    }\n\n    function getDesc() public view returns (string memory) {\n        return desc;\n    }\n\n    function updateDesc(string memory _desc) public {\n        desc = _desc;\n    }\n}\n",
  "sourcePath": "/Users/tsengmj/Documents/MJTseng/solidity_example/contracts/CommonType.sol",
  "compiler": {
    "name": "solc",
    "version": "0.8.13+commit.abaa5c0e.Emscripten.clang"
  },
  "schemaVersion": "3.4.6",
  "updatedAt": "2022-05-12T12:50:39.531Z",
  "networkType": "ethereum",
  "devdoc": {
    "kind": "dev",
    "methods": {},
    "version": 1
  },
  "userdoc": {
    "kind": "user",
    "methods": {},
    "version": 1
  }
}